{
  "contractName": "Escrow",
  "abi": [
    {
      "inputs": [],
      "stateMutability": "nonpayable",
      "type": "constructor"
    },
    {
      "anonymous": false,
      "inputs": [
        {
          "indexed": true,
          "internalType": "address",
          "name": "accountAddress",
          "type": "address"
        },
        {
          "indexed": false,
          "internalType": "uint256",
          "name": "amount",
          "type": "uint256"
        }
      ],
      "name": "LogDepositMade",
      "type": "event"
    },
    {
      "inputs": [],
      "name": "owner",
      "outputs": [
        {
          "internalType": "address",
          "name": "",
          "type": "address"
        }
      ],
      "stateMutability": "view",
      "type": "function"
    },
    {
      "inputs": [],
      "name": "deposit",
      "outputs": [
        {
          "internalType": "uint256",
          "name": "",
          "type": "uint256"
        }
      ],
      "stateMutability": "payable",
      "type": "function"
    },
    {
      "inputs": [
        {
          "internalType": "uint256",
          "name": "withdrawAmount",
          "type": "uint256"
        }
      ],
      "name": "withdraw",
      "outputs": [
        {
          "internalType": "uint256",
          "name": "remainingBal",
          "type": "uint256"
        }
      ],
      "stateMutability": "nonpayable",
      "type": "function"
    },
    {
      "inputs": [],
      "name": "balance",
      "outputs": [
        {
          "internalType": "uint256",
          "name": "",
          "type": "uint256"
        }
      ],
      "stateMutability": "view",
      "type": "function"
    },
    {
      "inputs": [],
      "name": "depositsBalance",
      "outputs": [
        {
          "internalType": "uint256",
          "name": "",
          "type": "uint256"
        }
      ],
      "stateMutability": "view",
      "type": "function"
    }
  ],
  "bytecode": "0x608060405234801561001057600080fd5b5033600160006101000a81548173ffffffffffffffffffffffffffffffffffffffff021916908373ffffffffffffffffffffffffffffffffffffffff160217905550610414806100616000396000f3fe60806040526004361061004a5760003560e01c8063138fbe711461004f5780632e1a7d4d1461007a5780638da5cb5b146100c9578063b69ef8a814610120578063d0e30db01461014b575b600080fd5b34801561005b57600080fd5b50610064610169565b6040518082815260200191505060405180910390f35b34801561008657600080fd5b506100b36004803603602081101561009d57600080fd5b8101908080359060200190929190505050610171565b6040518082815260200191505060405180910390f35b3480156100d557600080fd5b506100de610292565b604051808273ffffffffffffffffffffffffffffffffffffffff1673ffffffffffffffffffffffffffffffffffffffff16815260200191505060405180910390f35b34801561012c57600080fd5b506101356102b8565b6040518082815260200191505060405180910390f35b6101536102fe565b6040518082815260200191505060405180910390f35b600047905090565b60008060003373ffffffffffffffffffffffffffffffffffffffff1673ffffffffffffffffffffffffffffffffffffffff16815260200190815260200160002054821161024c57816000803373ffffffffffffffffffffffffffffffffffffffff1673ffffffffffffffffffffffffffffffffffffffff168152602001908152602001600020600082825403925050819055503373ffffffffffffffffffffffffffffffffffffffff166108fc839081150290604051600060405180830381858888f1935050505015801561024a573d6000803e3d6000fd5b505b6000803373ffffffffffffffffffffffffffffffffffffffff1673ffffffffffffffffffffffffffffffffffffffff168152602001908152602001600020549050919050565b600160009054906101000a900473ffffffffffffffffffffffffffffffffffffffff1681565b60008060003373ffffffffffffffffffffffffffffffffffffffff1673ffffffffffffffffffffffffffffffffffffffff16815260200190815260200160002054905090565b6000346000803373ffffffffffffffffffffffffffffffffffffffff1673ffffffffffffffffffffffffffffffffffffffff168152602001908152602001600020600082825401925050819055503373ffffffffffffffffffffffffffffffffffffffff167fa8126f7572bb1fdeae5b5aa9ec126438b91f658a07873f009d041ae690f3a193346040518082815260200191505060405180910390a26000803373ffffffffffffffffffffffffffffffffffffffff1673ffffffffffffffffffffffffffffffffffffffff1681526020019081526020016000205490509056fea2646970667358221220afb642f3e966d8d6240f9c36f12451cd9515b487f6be3af163da720281cf273964736f6c63430006060033",
  "immutableReferences": {},
  "source": "pragma solidity ^0.6.6;\r\n\r\ncontract Escrow {\r\n    mapping (address => uint) private balances;\r\n    address public owner;\r\n    \r\n     // Log the event about a deposit being made by an address and its amount\r\n    event LogDepositMade(address indexed accountAddress, uint amount);\r\n    \r\n    constructor() public {\r\n        owner = msg.sender;\r\n    }\r\n    \r\n    // Deposit ether into bank, requires method is \"payable\"\r\n    // The balance of the user after the deposit is made\r\n    function deposit() public payable returns (uint) {\r\n        balances[msg.sender] += msg.value;\r\n        emit LogDepositMade(msg.sender, msg.value);\r\n        return balances[msg.sender];\r\n    }\r\n\r\n    // Withdraw ether from bank\r\n    // The balance remaining for the user\r\n    function withdraw(uint withdrawAmount) public returns (uint remainingBal) {\r\n        // Check enough balance available, otherwise just return balance\r\n        if (withdrawAmount <= balances[msg.sender]) {\r\n            balances[msg.sender] -= withdrawAmount;\r\n            msg.sender.transfer(withdrawAmount);\r\n        }\r\n        return balances[msg.sender];\r\n    }\r\n\r\n    // Just reads balance of the account requesting, so \"constant\"\r\n    // The balance of the user\r\n    function balance() public view returns (uint) {\r\n        return balances[msg.sender];\r\n    }\r\n\r\n    // The balance of the Simple Bank contract\r\n    function depositsBalance() public view returns (uint) {\r\n        return address(this).balance;\r\n    }\r\n}",
  "sourcePath": "C:/Users/Gerardo Petitto/Desktop/Moralis.io/crystal-eth-token/truffle/contracts/Escrow.sol",
  "compiler": {
    "name": "solc",
    "version": "0.6.6+commit.6c089d02.Emscripten.clang"
  },
  "schemaVersion": "3.4.1",
  "updatedAt": "2021-05-29T03:33:07.712Z",
  "devdoc": {
    "methods": {}
  },
  "userdoc": {
    "methods": {}
  }
}